CNPJ4551255500015020012/05/2016000000000318071318/04/2016             15300044SP00996131019CDA       
CNPJ4551255500015020030/08/2017000000000258599325/07/2017             15300044SP00996131019CDA       
CNPJ4551255500015020008/02/2018000000000343318922/01/2018             15300044SP00996131019CDA       
CNPJ4551255500015020015/06/2018000000000343370723/05/2018             15300044SP00996131019CDA       
CNPJ4551255500015020023/07/2018000000000350530520/06/2018             15300044SP00996131019CDA       
CNPJ4551255500015020031/08/2018000000000001185020/08/2018             15300044SP00996131019DMI       
CNPJ4551255500015020011/06/2019000000000255093921/05/2019             15300044SP00996131019CDA       
CNPJ4551255500015020022/08/2019000000000164029423/07/2019             15300044SP00996131019CDA       
CNPJ4551255500015020010/09/2019000000000225191821/08/2019             15300044SP00996131019CDA       
CNPJ4551255500015020002/12/2019000000000005848418/11/2019             15300044SP00996131019DMI       
CNPJ4551255500015020013/01/2020000000000311464026/12/2019             15300044SP00996131019CDA       
CNPJ4551255500015020021/06/2016000000000394979918/05/2016             15300044SP00996131019CDA       
CNPJ4551255500015020007/02/2020000000000004900025/01/2020             15300044SP00996131019DMI       
CNPJ4551255500015020013/02/2020000000000181286021/01/2020             15300044SP00996131019CDA       
CNPJ4551255500015020013/03/2020000000000005400020/02/2020             15300044SP00996131019DMI       
CNPJ4551255500015020014/07/2020000000000622204923/05/2020             15300044SP00996131019CDA       
CNPJ4551255500015020021/07/2020000000000201798221/03/2020             15300044SP00996131019CDA       
CNPJ4551255500015020008/01/2021000000000029122424/11/2020             15300044SP00996131019CDA       
CNPJ4551255500015020028/07/2016000000000325063619/07/2016             15300044SP00996131019CDA       
CNPJ4551255500015020019/08/2016000000000282175020/06/2016             15300044SP00996131019CDA       
CNPJ4551255500015020011/10/2016000000000535225320/09/2016             15300044SP00996131019CDA       
CNPJ4551255500015020013/12/2016000000000320967221/11/2016             15300044SP00996131019CDA       
CNPJ4551255500015020012/01/2017000000000124508620/12/2016             15300044SP00996131019CDA       
CNPJ4551255500015020010/07/2017000000000353870627/06/2017             15300044SP00996131019CDA       
CNPJ4551255500015020012/07/2017000000001043183327/06/2017             15300044SP00996131019CDA       
CNPJ4551255500015020011/10/2016000000000624827819/08/2016             15300044SP00996131027CDA       
CNPJ4551255500015020020/02/2017000000000208703225/01/2017             15300044SP00996131027CDA       
CNPJ4551255500015020008/03/2017000000000432789321/02/2017             15300044SP00996131027CDA       
CNPJ4551255500015020010/07/2017000000000161838227/06/2017             15300044SP00996131027CDA       
CNPJ4551255500015020012/09/2017000000000263339921/08/2017             15300044SP00996131027CDA       
CNPJ4551255500015020010/10/2017000000000271999319/09/2017             15300044SP00996131027CDA       
CNPJ4551255500015020016/11/2017000000000498005920/10/2017             15300044SP00996131027CDA       
CNPJ4551255500015020019/01/2018000000000242198822/12/2017             15300044SP00996131027CDA       
CNPJ4551255500015020021/03/2018000000000425277622/02/2018             15300044SP00996131027CDA       
CNPJ4551255500015020013/04/2018000000000350478221/03/2018             15300044SP00996131027CDA       
CNPJ4551255500015020013/08/2018000000000931746220/07/2018             15300044SP00996131027CDA       
CNPJ4551255500015020013/08/2018000000000156194220/07/2018             15300044SP00996131027CDA       
CNPJ4551255500015020018/12/2018000000000436530823/11/2018             15300044SP00996131027CDA       
CNPJ4551255500015020007/01/2019000000000532778723/11/2018             15300044SP00996131027CDA       
CNPJ4551255500015020009/01/2019000000000231408323/11/2018             15300044SP00996131027CDA       
CNPJ4551255500015020013/02/2019000000000495522828/01/2019             15300044SP00996131027CDA       
CNPJ4551255500015020013/02/2019000000000209334128/01/2019             15300044SP00996131027CDA       
CNPJ4551255500015020019/03/2019000000000344448121/02/2019             15300044SP00996131027CDA       
CNPJ4551255500015020012/04/2019000000000268382620/03/2019             15300044SP00996131027CDA       
CNPJ4551255500015020014/10/2019000000000312037625/09/2019             15300044SP00996131027CDA       
CNPJ4551255500015020016/01/2020000000000455304723/10/2019             15300044SP00996131027CDA       
CNPJ4551255500015020020/01/2020000000000178647026/12/2019             15300044SP00996131027CDA       
CNPJ4551255500015020009/03/2020000000000161658121/02/2020             15300044SP00996131027CDA       
CNPJ4551255500015020005/06/2020000000000005400020/03/2020             15300044SP00996131027DMI       
CNPJ4551255500015020005/06/2020000000000005600020/04/2020             15300044SP00996131027DMI       
CNPJ4551255500015020012/11/2020000000000079928629/10/2020             15300044SP00996131027CDA       
CNPJ4551255500015020013/01/2021000000000179687422/12/2020             15300044SP00996131027CDA       
CNPJ4551255500015020007/12/2016000000000232667019/02/2016             15300044SP00996163018CDA       
CNPJ4551255500015020011/07/2017000000000705781827/06/2017             15300044SP00996163018CDA       
CNPJ4551255500015020006/09/2017000000000462478425/07/2017             15300044SP00996163018CDA       
CNPJ4551255500015020017/11/2017000000000564971520/10/2017             15300044SP00996163018CDA       
CNPJ4551255500015020009/02/2018000000000696540322/01/2018             15300044SP00996163018CDA       
CNPJ4551255500015020020/04/2018000000000454512621/03/2018             15300044SP00996163018CDA       
CNPJ4551255500015020014/06/2018000000000449613223/05/2018             15300044SP00996163018CDA       
CNPJ4551255500015020010/08/2018000000001324902020/07/2018             15300044SP00996163018CDA       
CNPJ4551255500015020012/09/2018000000000571889522/08/2018             15300044SP00996163018CDA       
CNPJ4551255500015020018/12/2018000000000327989023/11/2018             15300044SP00996163018CDA       
CNPJ4551255500015020019/12/2018000000000505981423/11/2018             15300044SP00996163018CDA       
CNPJ4551255500015020014/02/2019000000000675041028/01/2019             15300044SP00996163018CDA       
CNPJ4551255500015020012/07/2019000000000296698125/07/2017             15300044SP00996163018CDA       
CNPJ4551255500015020021/08/2019000000000263090023/07/2019             15300044SP00996163018CDA       
CNPJ4551255500015020026/08/2019000000000192713123/07/2019             15300044SP00996163018CDA       
CNPJ4551255500015020015/01/2020000000000330405026/12/2019             15300044SP00996163018CDA       
CNPJ4551255500015020014/02/2020000000000118892321/01/2020             15300044SP00996163018CDA       
CNPJ4551255500015020010/03/2020000000000176305121/02/2020             15300044SP00996163018CDA       
CNPJ4551255500015020016/03/2020000000000005400020/02/2020             15300044SP00996163018DMI       
CNPJ4551255500015020029/05/2020000000000005600020/04/2020             15300044SP00996163018DMI       
CNPJ4551255500015020010/06/2020000000000005600020/04/2020             15300044SP00996163018DMI       
CNPJ4551255500015020016/07/2020000000000109417721/03/2020             15300044SP00996163018CDA       
CNPJ4551255500015020024/07/2020000000000005400020/03/2020             15300044SP00996163018DMI       
CNPJ4551255500015020013/11/2020000000000080466729/10/2020             15300044SP00996163018CDA       
CNPJ4551255500015020009/12/2016000000000372025721/11/2016             15300044SP00996163026CDA       
CNPJ4551255500015020010/02/2017000000000363633125/01/2017             15300044SP00996163026CDA       
CNPJ4551255500015020010/07/2017000000000558698727/06/2017             15300044SP00996163026CDA       
CNPJ4551255500015020010/07/2017000000000230498727/06/2017             15300044SP00996163026CDA       
CNPJ4551255500015020012/09/2017000000000476056521/08/2017             15300044SP00996163026CDA       
CNPJ4551255500015020010/10/2017000000000464088019/09/2017             15300044SP00996163026CDA       
CNPJ4551255500015020015/01/2018000000000279680222/12/2017             15300044SP00996163026CDA       
CNPJ4551255500015020020/07/2018000000000478728120/06/2018             15300044SP00996163026CDA       
CNPJ4551255500015020009/08/2018000000000675895520/07/2018             15300044SP00996163026CDA       
CNPJ4551255500015020011/09/2018000000000473897922/08/2018             15300044SP00996163026CDA       
CNPJ4551255500015020020/12/2018000000000367441607/11/2018             15300044SP00996163026CDA       
CNPJ4551255500015020007/01/2019000000000747670123/11/2018             15300044SP00996163026CDA       
CNPJ4551255500015020007/01/2019000000000532228607/11/2018             15300044SP00996163026CDA       
CNPJ4551255500015020020/03/2019000000000544001321/02/2019             15300044SP00996163026CDA       
CNPJ4551255500015020012/06/2019000000000271947121/05/2019             15300044SP00996163026CDA       
CNPJ4551255500015020012/07/2019000000000239914825/07/2017             15300044SP00996163026CDA       
CNPJ4551255500015020012/07/2019000000000186424125/07/2017             15300044SP00996163026CDA       
CNPJ4551255500015020014/01/2020000000000320968223/10/2019             15300044SP00996163026CDA       
CNPJ4551255500015020014/01/2020000000000172986226/12/2019             15300044SP00996163026CDA       
CNPJ4551255500015020012/11/2020000000000305311529/10/2020             15300044SP00996163026CDA       
CNPJ4551255500015020010/07/2017000000000526215027/06/2017             15300044SP00996163034CDA       
CNPJ4551255500015020010/10/2017000000000210844619/09/2017             15300044SP00996163034CDA       
CNPJ4551255500015020016/11/2017000000000669411220/10/2017             15300044SP00996163034CDA       
CNPJ4551255500015020008/02/2018000000000504679322/01/2018             15300044SP00996163034CDA       
CNPJ4551255500015020009/03/2018000000000651752322/02/2018             15300044SP00996163034CDA       
CNPJ4551255500015020014/03/2018000000000533079522/02/2018             15300044SP00996163034CDA       
CNPJ4551255500015020014/06/2018000000000584607023/05/2018             15300044SP00996163034CDA       
CNPJ4551255500015020009/08/2018000000000239319620/07/2018             15300044SP00996163034CDA       
CNPJ4551255500015020013/02/2019000000000151967328/01/2019             15300044SP00996163034CDA       
CNPJ4551255500015020012/04/2019000000000237232820/03/2019             15300044SP00996163034CDA       
CNPJ4551255500015020012/07/2019000000000350931225/07/2017             15300044SP00996163034CDA       
CNPJ4551255500015020010/09/2019000000000242947221/08/2019             15300044SP00996163034CDA       
CNPJ4551255500015020011/10/2019000000000358068825/09/2019             15300044SP00996163034CDA       
CNPJ4551255500015020015/10/2019000000000228074925/09/2019             15300044SP00996163034CDA       
CNPJ4551255500015020015/01/2020000000000267545726/12/2019             15300044SP00996163034CDA       
CNPJ4551255500015020016/01/2020000000000456723223/10/2019             15300044SP00996163034CDA       
CNPJ4551255500015020013/02/2020000000000155756021/01/2020             15300044SP00996163034CDA       
CNPJ4551255500015020024/06/2020000000000005400020/03/2020             15300044SP00996163034DMI       
CNPJ4551255500015020021/07/2020000000000631702323/05/2020             15300044SP00996163034CDA       
CNPJ4551255500015020015/01/2021000000000148249122/12/2020             15300044SP00996163034CDA       
CNPJ4551255500015020002/02/2017000000000178164520/12/2016             15300044SP00996163034CDA       
CNPJ4551255500015020008/03/2017000000000270823521/02/2017             15300044SP00996163034CDA       
CNPJ4551255500015020015/03/2017000000000566179921/02/2017             15300044SP00996163034CDA       
CNPJ4551255500015020013/02/2017000000000456908725/01/2017             15300044SP00996163115CDA       
CNPJ4551255500015020010/07/2017000000000377965827/06/2017             15300044SP00996163115CDA       
CNPJ4551255500015020031/08/2017000000000222990025/07/2017             15300044SP00996163115CDA       
CNPJ4551255500015020013/09/2017000000000551694821/08/2017             15300044SP00996163115CDA       
CNPJ4551255500015020012/01/2018000000000299199822/12/2017             15300044SP00996163115CDA       
CNPJ4551255500015020019/04/2018000000000345217821/03/2018             15300044SP00996163115CDA       
CNPJ4551255500015020018/07/2018000000000336653520/06/2018             15300044SP00996163115CDA       
CNPJ4551255500015020010/08/2018000000000336256320/07/2018             15300044SP00996163115CDA       
CNPJ4551255500015020010/12/2018000000000276471423/11/2018             15300044SP00996163115CDA       
CNPJ4551255500015020012/02/2019000000000865373128/01/2019             15300044SP00996163115CDA       
CNPJ4551255500015020021/03/2019000000000129507521/02/2019             15300044SP00996163115CDA       
CNPJ4551255500015020012/04/2019000000000348585020/03/2019             15300044SP00996163115CDA       
CNPJ4551255500015020012/06/2019000000000372091521/05/2019             15300044SP00996163115CDA       
CNPJ4551255500015020012/07/2019000000000232770725/07/2017             15300044SP00996163115CDA       
CNPJ4551255500015020012/07/2019000000000150082225/07/2017             15300044SP00996163115CDA       
CNPJ4551255500015020012/07/2019000000000965208007/06/2019             15300044SP00996163115CDA       
CNPJ4551255500015020010/09/2019000000000288952021/08/2019             15300044SP00996163115CDA       
CNPJ4551255500015020015/01/2020000000000086664626/12/2019             15300044SP00996163115CDA       
CNPJ4551255500015020009/03/2020000000000111409221/02/2020             15300044SP00996163115CDA       
CNPJ4551255500015020010/07/2020000000000278794823/05/2020             15300044SP00996163115CDA       
CNPJ4551255500015020017/07/2020000000000236184621/03/2020             15300044SP00996163115CDA       
CNPJ4551255500015020010/12/2020000000000004842624/11/2020             15300044SP00996163115CDA       
CNPJ4551255500015020014/12/2020000000000232971524/11/2020             15300044SP00996163115CDA       
CNPJ4551255500015020010/05/2016000000000374057118/04/2016             15300044SP00996291016CDA       
CNPJ4551255500015020009/06/2016000000000320743018/05/2016             15300044SP00996291016CDA       
CNPJ4551255500015020009/06/2016000000001493017318/05/2016             15300044SP00996291016CDA       
CNPJ4551255500015020028/07/2016000000000934374520/06/2016             15300044SP00996291016CDA       
CNPJ4551255500015020028/07/2016000000000242452120/06/2016             15300044SP00996291016CDA       
CNPJ4551255500015020028/07/2016000000000572857619/07/2016             15300044SP00996291016CDA       
CNPJ4551255500015020028/07/2016000000000227252420/06/2016             15300044SP00996291016CDA       
CNPJ4551255500015020028/07/2016000000000166500119/07/2016             15300044SP00996291016CDA       
CNPJ4551255500015020010/10/2016000000000545360820/09/2016             15300044SP00996291016CDA       
CNPJ4551255500015020010/10/2016000000000922680620/09/2016             15300044SP00996291016CDA       
CNPJ4551255500015020004/11/2016000000000250141219/02/2016             15300044SP00996291016CDA       
CNPJ4551255500015020004/11/2016000000000296556519/02/2016             15300044SP00996291016CDA       
CNPJ4551255500015020009/12/2016000000000325878721/11/2016             15300044SP00996291016CDA       
CNPJ4551255500015020009/12/2016000000000918324824/11/2016             15300044SP00996291016CDA       
CNPJ4551255500015020012/12/2016000000000260831321/11/2016             15300044SP00996291016CDA       
CNPJ4551255500015020010/07/2017000000000324669527/06/2017             15300044SP00996291016CDA       
CNPJ4551255500015020031/08/2017000000000241069925/07/2017             15300044SP00996291016CDA       
CNPJ4551255500015020013/07/2018000000000528597620/06/2018             15300044SP00996291016CDA       
CNPJ4551255500015020013/07/2018000000000335255520/06/2018             15300044SP00996291016CDA       
CNPJ4551255500015020009/08/2018000000001119614420/07/2018             15300044SP00996291016CDA       
CNPJ4551255500015020011/09/2018000000001891852522/08/2018             15300044SP00996291016CDA       
CNPJ4551255500015020031/10/2018000000000000609222/10/2018             15300044SP00996291016DSI       
CNPJ4551255500015020010/12/2018000000000389845107/11/2018             15300044SP00996291016CDA       
CNPJ4551255500015020011/12/2018000000000697188207/11/2018             15300044SP00996291016CDA       
CNPJ4551255500015020011/12/2018000000000677656323/11/2018             15300044SP00996291016CDA       
CNPJ4551255500015020012/12/2018000000000419721023/11/2018             15300044SP00996291016CDA       
CNPJ4551255500015020013/12/2018000000001259172023/11/2018             15300044SP00996291016CDA       
CNPJ4551255500015020012/02/2019000000000713401028/01/2019             15300044SP00996291016CDA       
CNPJ4551255500015020012/02/2019000000000073442028/01/2019             15300044SP00996291016CDA       
CNPJ4551255500015020015/03/2019000000000003300026/02/2019             15300044SP00996291016DMI       
CNPJ4551255500015020019/03/2019000000000698634121/02/2019             15300044SP00996291016CDA       
CNPJ4551255500015020019/03/2019000000001356074421/02/2019             15300044SP00996291016CDA       
CNPJ4551255500015020019/03/2019000000000462510021/02/2019             15300044SP00996291016CDA       
CNPJ4551255500015020012/04/2019000000000324936420/03/2019             15300044SP00996291016CDA       
CNPJ4551255500015020012/04/2019000000000485207920/03/2019             15300044SP00996291016CDA       
CNPJ4551255500015020008/05/2019000000000002028625/04/2019             15300044SP00996291016DMI       
CNPJ4551255500015020011/06/2019000000000307028421/05/2019             15300044SP00996291016CDA       
CNPJ4551255500015020011/06/2019000000000985073821/05/2019             15300044SP00996291016CDA       
CNPJ4551255500015020023/07/2019000000000004418503/07/2019             15300044SP00996291016DMI       
CNPJ4551255500015020014/08/2019000000000854889923/07/2019             15300044SP00996291016CDA       
CNPJ4551255500015020014/08/2019000000000265892223/07/2019             15300044SP00996291016CDA       
CNPJ4551255500015020021/08/2019000000000003000009/08/2019             15300044SP00996291016DSI       
CNPJ4551255500015020010/09/2019000000000021162002/09/2019             15300044SP00996291016CDA       
CNPJ4551255500015020025/09/2019000000000016424825/08/2019             15300044SP00996291016DMI       
CNPJ4551255500015020012/12/2019000000000003220025/11/2019             15300044SP00996291016DMI       
CNPJ4551255500015020013/01/2020000000000739917426/12/2019             15300044SP00996291016CDA       
CNPJ4551255500015020013/01/2020000000001093324826/12/2019             15300044SP00996291016CDA       
CNPJ4551255500015020014/01/2020000000001515314526/12/2019             15300044SP00996291016CDA       
CNPJ4551255500015020014/01/2020000000000139888626/12/2019             15300044SP00996291016CDA       
CNPJ4551255500015020013/02/2020000000000768225221/01/2020             15300044SP00996291016CDA       
CNPJ4551255500015020017/02/2020000000000001313721/01/2020             15300044SP00996291016CDA       
CNPJ4551255500015020009/03/2020000000000184462821/02/2020             15300044SP00996291016CDA       
CNPJ4551255500015020009/03/2020000000000204588921/02/2020             15300044SP00996291016CDA       
CNPJ4551255500015020009/03/2020000000000136066021/02/2020             15300044SP00996291016CDA       
CNPJ4551255500015020013/03/2020000000000005400020/02/2020             15300044SP00996291016DMI       
CNPJ4551255500015020023/04/2020000000000005400020/03/2020             15300044SP00996291016DMI       
CNPJ4551255500015020023/04/2020000000000005400020/03/2020             15300044SP00996291016DMI       
CNPJ4551255500015020007/05/2020000000000005600020/04/2020             15300044SP00996291016DMI       
CNPJ4551255500015020009/07/2020000000000005600020/04/2020             15300044SP00996291016DMI       
CNPJ4551255500015020009/07/2020000000000005400020/03/2020             15300044SP00996291016DMI       
CNPJ4551255500015020009/07/2020000000000005400020/03/2020             15300044SP00996291016DMI       
CNPJ4551255500015020010/07/2020000000000139742521/03/2020             15300044SP00996291016CDA       
CNPJ4551255500015020010/07/2020000000000129707621/03/2020             15300044SP00996291016CDA       
CNPJ4551255500015020010/07/2020000000000142944423/05/2020             15300044SP00996291016CDA       
CNPJ4551255500015020024/07/2020000000000005600020/04/2020             15300044SP00996291016DMI       
CNPJ4551255500015020010/11/2020000000000074650929/10/2020             15300044SP00996291016CDA       
CNPJ4551255500015020010/11/2020000000000335520529/10/2020             15300044SP00996291016CDA       
CNPJ4551255500015020011/11/2020000000000034318729/10/2020             15300044SP00996291016CDA       
CNPJ4551255500015020011/01/2021000000000016790022/12/2020             15300044SP00996291016CDA       
CNPJ4551255500015020010/05/2016000000000359203718/04/2016             15300044SP00996291024CDA       
CNPJ4551255500015020009/06/2016000000000366522918/05/2016             15300044SP00996291024CDA       
CNPJ4551255500015020009/06/2016000000000541926018/05/2016             15300044SP00996291024CDA       
CNPJ4551255500015020028/07/2016000000000547209720/06/2016             15300044SP00996291024CDA       
CNPJ4551255500015020009/09/2016000000002609746719/08/2016             15300044SP00996291024CDA       
CNPJ4551255500015020010/10/2016000000002118348420/09/2016             15300044SP00996291024CDA       
CNPJ4551255500015020009/12/2016000000002036266924/11/2016             15300044SP00996291024CDA       
CNPJ4551255500015020009/12/2016000000001580571724/11/2016             15300044SP00996291024CDA       
CNPJ4551255500015020016/10/2017000000000943461919/09/2017             15300044SP00996291024CDA       
CNPJ4551255500015020016/11/2017000000000378661120/10/2017             15300044SP00996291024CDA       
CNPJ4551255500015020013/06/2018000000000562636623/05/2018             15300044SP00996291024CDA       
CNPJ4551255500015020014/06/2018000000000443537223/05/2018             15300044SP00996291024CDA       
CNPJ4551255500015020013/07/2018000000001629525920/06/2018             15300044SP00996291024CDA       
CNPJ4551255500015020009/08/2018000000003964421420/07/2018             15300044SP00996291024CDA       
CNPJ4551255500015020009/08/2018000000001406676720/07/2018             15300044SP00996291024CDA       
CNPJ4551255500015020009/08/2018000000002811009520/07/2018             15300044SP00996291024CDA       
CNPJ4551255500015020009/08/2018000000000294163420/07/2018             15300044SP00996291024CDA       
CNPJ4551255500015020011/09/2018000000002008786322/08/2018             15300044SP00996291024CDA       
CNPJ4551255500015020010/10/2018000000000001030821/09/2018             15300044SP00996291024DSI       
CNPJ4551255500015020031/10/2018000000000001074822/10/2018             15300044SP00996291024DSI       
CNPJ4551255500015020010/12/2018000000000757156423/11/2018             15300044SP00996291024CDA       
CNPJ4551255500015020010/12/2018000000001590374523/11/2018             15300044SP00996291024CDA       
CNPJ4551255500015020010/12/2018000000000819482323/11/2018             15300044SP00996291024CDA       
CNPJ4551255500015020012/12/2018000000001912377023/11/2018             15300044SP00996291024CDA       
CNPJ4551255500015020012/12/2018000000000946403723/11/2018             15300044SP00996291024CDA       
CNPJ4551255500015020014/12/2018000000001530767023/11/2018             15300044SP00996291024CDA       
CNPJ4551255500015020014/12/2018000000001726156123/11/2018             15300044SP00996291024CDA       
CNPJ4551255500015020014/12/2018000000000428043123/11/2018             15300044SP00996291024CDA       
CNPJ4551255500015020012/02/2019000000001383715828/01/2019             15300044SP00996291024CDA       
CNPJ4551255500015020012/02/2019000000000348989328/01/2019             15300044SP00996291024CDA       
CNPJ4551255500015020012/02/2019000000000623532228/01/2019             15300044SP00996291024CDA       
CNPJ4551255500015020012/02/2019000000000724351128/01/2019             15300044SP00996291024CDA       
CNPJ4551255500015020019/03/2019000000001600105521/02/2019             15300044SP00996291024CDA       
CNPJ4551255500015020012/04/2019000000000417993120/03/2019             15300044SP00996291024CDA       
CNPJ4551255500015020011/06/2019000000000704909821/05/2019             15300044SP00996291024CDA       
CNPJ4551255500015020011/06/2019000000000423153821/05/2019             15300044SP00996291024CDA       
CNPJ4551255500015020025/07/2019000000000009262308/07/2019             15300044SP00996291024DMI       
CNPJ4551255500015020029/07/2019000000000001590715/07/2019             15300044SP00996291024DMI       
CNPJ4551255500015020015/08/2019000000000303208623/07/2019             15300044SP00996291024CDA       
CNPJ4551255500015020002/09/2019000000000004642020/08/2019             15300044SP00996291024DMI       
CNPJ4551255500015020010/09/2019000000000783423821/08/2019             15300044SP00996291024CDA       
CNPJ4551255500015020010/09/2019000000000857932921/08/2019             15300044SP00996291024CDA       
CNPJ4551255500015020012/09/2019000000000285403121/08/2019             15300044SP00996291024CDA       
CNPJ4551255500015020025/09/2019000000000016465925/08/2019             15300044SP00996291024DMI       
CNPJ4551255500015020009/10/2019000000001044734425/09/2019             15300044SP00996291024CDA       
CNPJ4551255500015020009/10/2019000000001113767625/09/2019             15300044SP00996291024CDA       
CNPJ4551255500015020014/10/2019000000000010440129/09/2019             15300044SP00996291024DMI       
CNPJ4551255500015020007/11/2019000000000010437025/10/2019             15300044SP00996291024DMI       
CNPJ4551255500015020005/12/2019000000000010436922/11/2019             15300044SP00996291024DMI       
CNPJ4551255500015020013/01/2020000000000415977023/10/2019             15300044SP00996291024CDA       
CNPJ4551255500015020013/01/2020000000000445795623/10/2019             15300044SP00996291024CDA       
CNPJ4551255500015020013/01/2020000000000075600326/12/2019             15300044SP00996291024CDA       
CNPJ4551255500015020013/01/2020000000000713288326/12/2019             15300044SP00996291024CDA       
CNPJ4551255500015020013/01/2020000000000197767026/12/2019             15300044SP00996291024CDA       
CNPJ4551255500015020014/01/2020000000000334037026/12/2019             15300044SP00996291024CDA       
CNPJ4551255500015020015/01/2020000000000405336626/12/2019             15300044SP00996291024CDA       
CNPJ4551255500015020007/02/2020000000000001800025/01/2020             15300044SP00996291024DMI       
CNPJ4551255500015020013/02/2020000000000207251021/01/2020             15300044SP00996291024CDA       
CNPJ4551255500015020013/02/2020000000000124526921/01/2020             15300044SP00996291024CDA       
CNPJ4551255500015020017/03/2020000000000009407505/03/2020             15300044SP00996291024DMI       
CNPJ4551255500015020023/04/2020000000000005400020/03/2020             15300044SP00996291024DMI       
CNPJ4551255500015020011/05/2020000000000005600020/04/2020             15300044SP00996291024DMI       
CNPJ4551255500015020008/07/2020000000000164385921/03/2020             15300044SP00996291024CDA       
CNPJ4551255500015020008/07/2020000000000563483623/05/2020             15300044SP00996291024CDA       
CNPJ4551255500015020010/07/2020000000000005600020/04/2020             15300044SP00996291024DMI       
CNPJ4551255500015020010/07/2020000000000005400020/03/2020             15300044SP00996291024DMI       
CNPJ4551255500015020010/07/2020000000000005400020/03/2020             15300044SP00996291024DMI       
CNPJ4551255500015020013/07/2020000000000767019521/03/2020             15300044SP00996291024CDA       
CNPJ4551255500015020010/11/2020000000000002676929/10/2020             15300044SP00996291024CDA       
CNPJ4551255500015020010/11/2020000000000008614629/10/2020             15300044SP00996291024CDA       
CNPJ4551255500015020010/11/2020000000000254066529/10/2020             15300044SP00996291024CDA       
CNPJ4551255500015020010/12/2020000000000007724624/11/2020             15300044SP00996291024CDA       
CNPJ4551255500015020011/12/2020000000001681670324/11/2020             15300044SP00996291024CDA       
CNPJ4551255500015020011/01/2021000000000020711722/12/2020             15300044SP00996291024CDA       
CNPJ4551255500015020010/05/2016000000000550195618/04/2016             15300044SP00996291032CDA       
CNPJ4551255500015020010/05/2016000000001262427018/04/2016             15300044SP00996291032CDA       
CNPJ4551255500015020028/07/2016000000001700306319/07/2016             15300044SP00996291032CDA       
CNPJ4551255500015020028/07/2016000000000317346319/07/2016             15300044SP00996291032CDA       
CNPJ4551255500015020009/09/2016000000001012962419/08/2016             15300044SP00996291032CDA       
CNPJ4551255500015020009/09/2016000000000267435719/08/2016             15300044SP00996291032CDA       
CNPJ4551255500015020009/09/2016000000000664448819/08/2016             15300044SP00996291032CDA       
CNPJ4551255500015020010/10/2016000000000522155820/09/2016             15300044SP00996291032CDA       
CNPJ4551255500015020009/12/2016000000000049443621/11/2016             15300044SP00996291032CDA       
CNPJ4551255500015020009/12/2016000000000555254321/11/2016             15300044SP00996291032CDA       
CNPJ4551255500015020009/12/2016000000000884171024/11/2016             15300044SP00996291032CDA       
CNPJ4551255500015020010/02/2017000000001342291701/02/2017             15300044SP00996291032DSI       
CNPJ4551255500015020010/07/2017000000000917228627/06/2017             15300044SP00996291032CDA       
CNPJ4551255500015020010/07/2017000000000152827327/06/2017             15300044SP00996291032CDA       
CNPJ4551255500015020014/06/2018000000001139292423/05/2018             15300044SP00996291032CDA       
CNPJ4551255500015020014/06/2018000000001318303023/05/2018             15300044SP00996291032CDA       
CNPJ4551255500015020014/06/2018000000000592719123/05/2018             15300044SP00996291032CDA       
CNPJ4551255500015020012/07/2018000000001055136720/06/2018             15300044SP00996291032CDA       
CNPJ4551255500015020018/07/2018000000000561695520/06/2018             15300044SP00996291032CDA       
CNPJ4551255500015020009/08/2018000000000993724820/07/2018             15300044SP00996291032CDA       
CNPJ4551255500015020009/08/2018000000000484140920/07/2018             15300044SP00996291032CDA       
CNPJ4551255500015020009/08/2018000000001049576720/07/2018             15300044SP00996291032CDA       
CNPJ4551255500015020009/08/2018000000001128988320/07/2018             15300044SP00996291032CDA       
CNPJ4551255500015020009/08/2018000000000386662220/07/2018             15300044SP00996291032CDA       
CNPJ4551255500015020031/08/2018000000000001133020/08/2018             15300044SP00996291032DMI       
CNPJ4551255500015020011/09/2018000000000768399222/08/2018             15300044SP00996291032CDA       
CNPJ4551255500015020011/09/2018000000000771610322/08/2018             15300044SP00996291032CDA       
CNPJ4551255500015020017/09/2018000000000014000003/09/2018             15300044SP00996291032DSI       
CNPJ4551255500015020010/12/2018000000001931845923/11/2018             15300044SP00996291032CDA       
CNPJ4551255500015020014/12/2018000000000303973623/11/2018             15300044SP00996291032CDA       
CNPJ4551255500015020012/02/2019000000001570893028/01/2019             15300044SP00996291032CDA       
CNPJ4551255500015020012/02/2019000000001770799828/01/2019             15300044SP00996291032CDA       
CNPJ4551255500015020012/02/2019000000000526740628/01/2019             15300044SP00996291032CDA       
CNPJ4551255500015020012/02/2019000000000498672428/01/2019             15300044SP00996291032CDA       
CNPJ4551255500015020019/03/2019000000000676846521/02/2019             15300044SP00996291032CDA       
CNPJ4551255500015020012/04/2019000000001756177220/03/2019             15300044SP00996291032CDA       
CNPJ4551255500015020012/04/2019000000001315554520/03/2019             15300044SP00996291032CDA       
CNPJ4551255500015020011/06/2019000000000394865321/05/2019             15300044SP00996291032CDA       
CNPJ4551255500015020022/07/2019000000000023600008/07/2019             15300044SP00996291032DMI       
CNPJ4551255500015020015/08/2019000000000916595223/07/2019             15300044SP00996291032CDA       
CNPJ4551255500015020021/08/2019000000000012000009/08/2019             15300044SP00996291032DSI       
CNPJ4551255500015020010/09/2019000000000441562021/08/2019             15300044SP00996291032CDA       
CNPJ4551255500015020009/10/2019000000000338488725/09/2019             15300044SP00996291032CDA       
CNPJ4551255500015020011/10/2019000000000351642425/09/2019             15300044SP00996291032CDA       
CNPJ4551255500015020013/01/2020000000001665616623/10/2019             15300044SP00996291032CDA       
CNPJ4551255500015020013/01/2020000000001462450523/10/2019             15300044SP00996291032CDA       
CNPJ4551255500015020013/01/2020000000000245361826/12/2019             15300044SP00996291032CDA       
CNPJ4551255500015020015/01/2020000000000343674926/12/2019             15300044SP00996291032CDA       
CNPJ4551255500015020015/01/2020000000000449610723/10/2019             15300044SP00996291032CDA       
CNPJ4551255500015020013/02/2020000000000129236621/01/2020             15300044SP00996291032CDA       
CNPJ4551255500015020013/02/2020000000000655252721/01/2020             15300044SP00996291032CDA       
CNPJ4551255500015020009/03/2020000000000813559821/02/2020             15300044SP00996291032CDA       
CNPJ4551255500015020009/03/2020000000000711373521/02/2020             15300044SP00996291032CDA       
CNPJ4551255500015020005/05/2020000000000005400020/03/2020             15300044SP00996291032DMI       
CNPJ4551255500015020005/05/2020000000000005400020/03/2020             15300044SP00996291032DMI       
CNPJ4551255500015020021/05/2020000000000005600020/04/2020             15300044SP00996291032DMI       
CNPJ4551255500015020029/05/2020000000000005600020/04/2020             15300044SP00996291032DMI       
CNPJ4551255500015020029/05/2020000000000005600020/04/2020             15300044SP00996291032DMI       
CNPJ4551255500015020007/07/2020000000000005600020/04/2020             15300044SP00996291032DMI       
CNPJ4551255500015020008/07/2020000000000979998921/03/2020             15300044SP00996291032CDA       
CNPJ4551255500015020008/07/2020000000002326765223/05/2020             15300044SP00996291032CDA       
CNPJ4551255500015020009/07/2020000000000005600020/04/2020             15300044SP00996291032DMI       
CNPJ4551255500015020009/07/2020000000000005400020/03/2020             15300044SP00996291032DMI       
CNPJ4551255500015020010/07/2020000000000309540123/05/2020             15300044SP00996291032CDA       
CNPJ4551255500015020010/11/2020000000000016319729/10/2020             15300044SP00996291032CDA       
CNPJ4551255500015020010/11/2020000000000059931529/10/2020             15300044SP00996291032CDA       
CNPJ4551255500015020010/11/2020000000000006493829/10/2020             15300044SP00996291032CDA       
CNPJ4551255500015020010/11/2020000000000013324529/10/2020             15300044SP00996291032CDA       
CNPJ4551255500015020012/11/2020000000000029110729/10/2020             15300044SP00996291032CDA       
CNPJ4551255500015020011/01/2021000000000472442022/12/2020             15300044SP00996291032CDA       
CNPJ4551255500015020010/05/2016000000000433603718/04/2016             15300044SP00996511016CDA       
CNPJ4551255500015020010/05/2016000000000290406118/04/2016             15300044SP00996511016CDA       
CNPJ4551255500015020009/06/2016000000000401829618/05/2016             15300044SP00996511016CDA       
CNPJ4551255500015020009/06/2016000000000392326618/05/2016             15300044SP00996511016CDA       
CNPJ4551255500015020028/07/2016000000000269216419/07/2016             15300044SP00996511016CDA       
CNPJ4551255500015020028/07/2016000000000194711520/06/2016             15300044SP00996511016CDA       
CNPJ4551255500015020028/07/2016000000000172745020/06/2016             15300044SP00996511016CDA       
CNPJ4551255500015020028/07/2016000000000582679119/07/2016             15300044SP00996511016CDA       
CNPJ4551255500015020009/09/2016000000000562406819/08/2016             15300044SP00996511016CDA       
CNPJ4551255500015020009/09/2016000000000726611119/08/2016             15300044SP00996511016CDA       
CNPJ4551255500015020010/10/2016000000000399756520/09/2016             15300044SP00996511016CDA       
CNPJ4551255500015020010/10/2016000000000604533420/09/2016             15300044SP00996511016CDA       
CNPJ4551255500015020008/11/2016000000000194928319/02/2016             15300044SP00996511016CDA       
CNPJ4551255500015020009/12/2016000000000456650021/11/2016             15300044SP00996511016CDA       
CNPJ4551255500015020012/12/2016000000000326951921/11/2016             15300044SP00996511016CDA       
CNPJ4551255500015020012/01/2017000000000138747120/12/2016             15300044SP00996511016CDA       
CNPJ4551255500015020012/01/2017000000000075360620/12/2016             15300044SP00996511016CDA       
CNPJ4551255500015020013/01/2017000000000007100030/12/2016             15300044SP00996511016DMI       
CNPJ4551255500015020010/02/2017000000000189974025/01/2017             15300044SP00996511016CDA       
CNPJ4551255500015020013/02/2017000000000404818625/01/2017             15300044SP00996511016CDA       
CNPJ4551255500015020008/03/2017000000000566532821/02/2017             15300044SP00996511016CDA       
CNPJ4551255500015020008/03/2017000000000347184721/02/2017             15300044SP00996511016CDA       
CNPJ4551255500015020010/07/2017000000001024129627/06/2017             15300044SP00996511016CDA       
CNPJ4551255500015020010/07/2017000000000904177827/06/2017             15300044SP00996511016CDA       
CNPJ4551255500015020010/07/2017000000000368909327/06/2017             15300044SP00996511016CDA       
CNPJ4551255500015020010/07/2017000000000546094827/06/2017             15300044SP00996511016CDA       
CNPJ4551255500015020010/07/2017000000000198006227/06/2017             15300044SP00996511016CDA       
CNPJ4551255500015020010/07/2017000000000301496227/06/2017             15300044SP00996511016CDA       
CNPJ4551255500015020029/08/2017000000000177982625/07/2017             15300044SP00996511016CDA       
CNPJ4551255500015020029/08/2017000000000287861925/07/2017             15300044SP00996511016CDA       
CNPJ4551255500015020011/09/2017000000000341543021/08/2017             15300044SP00996511016CDA       
CNPJ4551255500015020011/09/2017000000000437271221/08/2017             15300044SP00996511016CDA       
CNPJ4551255500015020010/10/2017000000000205108719/09/2017             15300044SP00996511016CDA       
CNPJ4551255500015020010/10/2017000000000278118119/09/2017             15300044SP00996511016CDA       
CNPJ4551255500015020016/11/2017000000000593613920/10/2017             15300044SP00996511016CDA       
CNPJ4551255500015020016/11/2017000000000784666020/10/2017             15300044SP00996511016CDA       
CNPJ4551255500015020012/01/2018000000000555142722/12/2017             15300044SP00996511016CDA       
CNPJ4551255500015020015/01/2018000000000324142522/12/2017             15300044SP00996511016CDA       
CNPJ4551255500015020012/03/2018000000000434145322/02/2018             15300044SP00996511016CDA       
CNPJ4551255500015020012/03/2018000000000691212722/02/2018             15300044SP00996511016CDA       
CNPJ4551255500015020013/04/2018000000000424882421/03/2018             15300044SP00996511016CDA       
CNPJ4551255500015020016/04/2018000000000404392921/03/2018             15300044SP00996511016CDA       
CNPJ4551255500015020004/05/2018000000000470871422/01/2018             15300044SP00996511016CDA       
CNPJ4551255500015020004/05/2018000000000582730322/01/2018             15300044SP00996511016CDA       
CNPJ4551255500015020013/06/2018000000000491352223/05/2018             15300044SP00996511016CDA       
CNPJ4551255500015020013/06/2018000000000579327523/05/2018             15300044SP00996511016CDA       
CNPJ4551255500015020012/07/2018000000000380758720/06/2018             15300044SP00996511016CDA       
CNPJ4551255500015020016/07/2018000000000473637220/06/2018             15300044SP00996511016CDA       
CNPJ4551255500015020009/08/2018000000000970052320/07/2018             15300044SP00996511016CDA       
CNPJ4551255500015020009/08/2018000000000183217820/07/2018             15300044SP00996511016CDA       
CNPJ4551255500015020009/08/2018000000001082241120/07/2018             15300044SP00996511016CDA       
CNPJ4551255500015020009/08/2018000000000324371320/07/2018             15300044SP00996511016CDA       
CNPJ4551255500015020011/09/2018000000000656599822/08/2018             15300044SP00996511016CDA       
CNPJ4551255500015020010/12/2018000000000528928307/11/2018             15300044SP00996511016CDA       
CNPJ4551255500015020010/12/2018000000000868014607/11/2018             15300044SP00996511016CDA       
CNPJ4551255500015020011/12/2018000000000695004807/11/2018             15300044SP00996511016CDA       
CNPJ4551255500015020011/12/2018000000000534301107/11/2018             15300044SP00996511016CDA       
CNPJ4551255500015020012/12/2018000000000391544623/11/2018             15300044SP00996511016CDA       
CNPJ4551255500015020013/12/2018000000000598027023/11/2018             15300044SP00996511016CDA       
CNPJ4551255500015020014/12/2018000000000538750807/11/2018             15300044SP00996511016CDA       
CNPJ4551255500015020012/02/2019000000000650681528/01/2019             15300044SP00996511016CDA       
CNPJ4551255500015020012/02/2019000000000077959528/01/2019             15300044SP00996511016CDA       
CNPJ4551255500015020013/02/2019000000000770399128/01/2019             15300044SP00996511016CDA       
CNPJ4551255500015020021/03/2019000000000476293921/02/2019             15300044SP00996511016CDA       
CNPJ4551255500015020021/03/2019000000000594950021/02/2019             15300044SP00996511016CDA       
CNPJ4551255500015020015/04/2019000000000395062320/03/2019             15300044SP00996511016CDA       
CNPJ4551255500015020015/04/2019000000000375235020/03/2019             15300044SP00996511016CDA       
CNPJ4551255500015020011/06/2019000000000304103121/05/2019             15300044SP00996511016CDA       
CNPJ4551255500015020011/06/2019000000000362789121/05/2019             15300044SP00996511016CDA       
CNPJ4551255500015020015/08/2019000000000235313723/07/2019             15300044SP00996511016CDA       
CNPJ4551255500015020020/08/2019000000000447186123/07/2019             15300044SP00996511016CDA       
CNPJ4551255500015020010/09/2019000000000258533221/08/2019             15300044SP00996511016CDA       
CNPJ4551255500015020010/09/2019000000000361644921/08/2019             15300044SP00996511016CDA       
CNPJ4551255500015020010/10/2019000000000377021025/09/2019             15300044SP00996511016CDA       
CNPJ4551255500015020011/10/2019000000000426992025/09/2019             15300044SP00996511016CDA       
CNPJ4551255500015020013/01/2020000000000365018426/12/2019             15300044SP00996511016CDA       
CNPJ4551255500015020014/01/2020000000000216738326/12/2019             15300044SP00996511016CDA       
CNPJ4551255500015020015/01/2020000000000497342923/10/2019             15300044SP00996511016CDA       
CNPJ4551255500015020015/01/2020000000000224508526/12/2019             15300044SP00996511016CDA       
CNPJ4551255500015020016/01/2020000000000568985623/10/2019             15300044SP00996511016CDA       
CNPJ4551255500015020016/01/2020000000000393720726/12/2019             15300044SP00996511016CDA       
CNPJ4551255500015020007/02/2020000000000007500025/01/2020             15300044SP00996511016DMI       
CNPJ4551255500015020013/02/2020000000000214547121/01/2020             15300044SP00996511016CDA       
CNPJ4551255500015020014/02/2020000000000292924821/01/2020             15300044SP00996511016CDA       
CNPJ4551255500015020009/03/2020000000000262928021/02/2020             15300044SP00996511016CDA       
CNPJ4551255500015020009/03/2020000000000254795921/02/2020             15300044SP00996511016CDA       
CNPJ4551255500015020013/03/2020000000000005400020/02/2020             15300044SP00996511016DMI       
CNPJ4551255500015020013/03/2020000000000005400020/02/2020             15300044SP00996511016DMI       
CNPJ4551255500015020013/03/2020000000000007500025/02/2020             15300044SP00996511016DMI       
CNPJ4551255500015020021/05/2020000000000005400020/03/2020             15300044SP00996511016DMI       
CNPJ4551255500015020021/05/2020000000000005400020/03/2020             15300044SP00996511016DMI       
CNPJ4551255500015020026/05/2020000000000005600020/04/2020             15300044SP00996511016DMI       
CNPJ4551255500015020026/05/2020000000000005600020/04/2020             15300044SP00996511016DMI       
CNPJ4551255500015020017/07/2020000000000293903021/03/2020             15300044SP00996511016CDA       
CNPJ4551255500015020017/07/2020000000000652333123/05/2020             15300044SP00996511016CDA       
CNPJ4551255500015020023/09/2020000000000006749525/08/2020             15300044SP00996511016CDA       
CNPJ4551255500015020023/09/2020000000000008127225/08/2020             15300044SP00996511016CDA       
CNPJ4551255500015020011/11/2020000000000571405529/10/2020             15300044SP00996511016CDA       
CNPJ4551255500015020011/11/2020000000000183608729/10/2020             15300044SP00996511016CDA       
CNPJ4551255500015020008/12/2020000000000013801324/11/2020             15300044SP00996511016CDA       
CNPJ4551255500015020008/12/2020000000000090497224/11/2020             15300044SP00996511016CDA       
CNPJ4551255500015020011/01/2021000000000220336522/12/2020             15300044SP00996511016CDA       
CNPJ4551255500015020011/10/2016000000000976271419/02/2016             15300044SP00996579001CDA       
CNPJ4551255500015020011/10/2016000000000519005318/05/2016             15300044SP00996579001CDA       
CNPJ4551255500015020023/03/2017000000000447132525/01/2017             15300044SP00996579001CDA       
CNPJ4551255500015020031/03/2017000000000578269721/02/2017             15300044SP00996579001CDA       
CNPJ4551255500015020023/08/2017000000000350053025/07/2017             15300044SP00996579001CDA       
CNPJ4551255500015020011/09/2017000000000562554121/08/2017             15300044SP00996579001CDA       
CNPJ4551255500015020011/10/2017000000000402665019/09/2017             15300044SP00996579001CDA       
CNPJ4551255500015020015/03/2018000000000633368622/02/2018             15300044SP00996579001CDA       
CNPJ4551255500015020025/07/2018000000000454222720/06/2018             15300044SP00996579001CDA       
CNPJ4551255500015020014/08/2018000000000359429320/07/2018             15300044SP00996579001CDA       
CNPJ4551255500015020012/09/2018000000000775584722/08/2018             15300044SP00996579001CDA       
CNPJ4551255500015020015/02/2019000000000099333328/01/2019             15300044SP00996579001CDA       
CNPJ4551255500015020020/02/2019000000000529938923/11/2018             15300044SP00996579001CDA       
CNPJ4551255500015020015/04/2019000000000398638720/03/2019             15300044SP00996579001CDA       
CNPJ4551255500015020011/06/2019000000000435799621/05/2019             15300044SP00996579001CDA       
CNPJ4551255500015020030/08/2019000000000336462423/07/2019             15300044SP00996579001CDA       
CNPJ4551255500015020022/01/2020000000000443659326/12/2019             15300044SP00996579001CDA       
CNPJ4551255500015020009/03/2020000000000306223721/02/2020             15300044SP00996579001CDA       
CNPJ4551255500015020022/06/2020000000000005600020/04/2020             15300044SP00996579001DMI       
CNPJ4551255500015020011/10/2016000000000623927419/02/2016             15300044SP00996579010CDA       
CNPJ4551255500015020011/10/2016000000001148907219/02/2016             15300044SP00996579010CDA       
CNPJ4551255500015020011/10/2016000000000602704718/03/2016             15300044SP00996579010CDA       
CNPJ4551255500015020011/10/2016000000000226077520/06/2016             15300044SP00996579010CDA       
CNPJ4551255500015020013/07/2017000000001166519627/06/2017             15300044SP00996579010CDA       
CNPJ4551255500015020016/11/2017000000000852384420/10/2017             15300044SP00996579010CDA       
CNPJ4551255500015020009/02/2018000000000630251622/01/2018             15300044SP00996579010CDA       
CNPJ4551255500015020013/08/2018000000001274486420/07/2018             15300044SP00996579010CDA       
CNPJ4551255500015020012/12/2018000000000713920407/11/2018             15300044SP00996579010CDA       
CNPJ4551255500015020022/03/2019000000000536133821/02/2019             15300044SP00996579010CDA       
CNPJ4551255500015020023/10/2019000000000502578325/09/2019             15300044SP00996579010CDA       
CNPJ4551255500015020022/01/2020000000000259571726/12/2019             15300044SP00996579010CDA       
CNPJ4551255500015020013/03/2020000000000005400020/02/2020             15300044SP00996579010DMI       
CNPJ4551255500015020024/06/2020000000000011745810/11/2019             15300044SP00996579010DS        
CNPJ4551255500015020011/10/2016000000000892622122/02/2016             15300044SP00996579028CDA       
CNPJ4551255500015020012/01/2018000000000410028722/12/2017             15300044SP00996579028CDA       
CNPJ4551255500015020020/04/2018000000000520548721/03/2018             15300044SP00996579028CDA       
CNPJ4551255500015020014/06/2018000000000570727723/05/2018             15300044SP00996579028CDA       
CNPJ4551255500015020031/01/2019000000000900915107/11/2018             15300044SP00996579028CDA       
CNPJ4551255500015020001/03/2019000000000925403728/01/2019             15300044SP00996579028CDA       
CNPJ4551255500015020010/09/2019000000000353446021/08/2019             15300044SP00996579028CDA       
CNPJ4551255500015020022/01/2020000000000542626423/10/2019             15300044SP00996579028CDA       
CNPJ4551255500015020013/02/2020000000000253238621/01/2020             15300044SP00996579028CDA       
CNPJ4551255500015020010/06/2020000000000005400020/03/2020             15300044SP00996579028DMI       
CNPJ4551255500015020025/06/2020000000000006757208/05/2020             15300044SP00996579028DSI       
CNPJ4551255500015020017/07/2020000000000729056223/05/2020             15300044SP00996579028CDA       
CNPJ4551255500015020025/01/2021000000000381911424/11/2020             15300044SP00996579028CDA       
CNPJ4551255500015020016/03/2017000000000240156005/03/2017             15300044SP00996619003DMI       
CNPJ4551255500015020016/03/2017000000000475200003/03/2017             15300044SP00996619003DMI       
CNPJ4551255500015020016/03/2017000000000087360001/03/2017             15300044SP00996619003DMI       
CNPJ4551255500015020016/03/2017000000000156780001/03/2017             15300044SP00996619003DMI       
CNPJ4551255500015020016/03/2017000000000163800001/03/2017             15300044SP00996619003DMI       
CNPJ4551255500015020017/03/2017000000000074880005/03/2017             15300044SP00996619003DMI       
CNPJ4551255500015020017/03/2017000000000074880005/03/2017             15300044SP00996619003DMI       
CNPJ4551255500015020017/03/2017000000000103518004/03/2017             15300044SP00996619003DMI       
CNPJ4551255500015020017/03/2017000000000083712005/03/2017             15300044SP00996619003DMI       
CNPJ4551255500015020017/03/2017000000000197785805/03/2017             15300044SP00996619003DMI       
CNPJ4551255500015020017/03/2017000000000269983207/03/2017             15300044SP00996619003DMI       
CNPJ4551255500015020017/03/2017000000000640416006/03/2017             15300044SP00996619003DMI       
CNPJ4551255500015020020/03/2017000000000112258407/03/2017             15300044SP00996619003DMI       
CNPJ4551255500015020020/03/2017000000000113157007/03/2017             15300044SP00996619003DMI       
CNPJ4551255500015020020/03/2017000000000087200007/03/2017             15300044SP00996619003DMI       
CNPJ4551255500015020020/03/2017000000000187910006/03/2017             15300044SP00996619003DMI       
CNPJ4551255500015020020/03/2017000000000187985006/03/2017             15300044SP00996619003DMI       
CNPJ4551255500015020020/03/2017000000000264820006/03/2017             15300044SP00996619003DMI       
CNPJ4551255500015020020/03/2017000000000264907006/03/2017             15300044SP00996619003DMI       
CNPJ4551255500015020020/03/2017000000000315750007/03/2017             15300044SP00996619003DMI       
CNPJ4551255500015020020/03/2017000000000315845909/03/2017             15300044SP00996619003DMI       
CNPJ4551255500015020020/03/2017000000000458640009/03/2017             15300044SP00996619003DMI       
CNPJ4551255500015020021/03/2017000000000177262509/03/2017             15300044SP00996619003DMI       
CNPJ4551255500015020021/03/2017000000000198000007/03/2017             15300044SP00996619003DMI       
CNPJ4551255500015020021/03/2017000000000099000007/03/2017             15300044SP00996619003DMI       
CNPJ4551255500015020021/03/2017000000000249600007/03/2017             15300044SP00996619003DMI       
CNPJ4551255500015020021/03/2017000000000124800007/03/2017             15300044SP00996619003DMI       
CNPJ4551255500015020021/03/2017000000000450918011/03/2017             15300044SP00996619003DMI       
CNPJ4551255500015020022/03/2017000000000072208810/03/2017             15300044SP00996619003DMI       
CNPJ4551255500015020022/03/2017000000000109881010/03/2017             15300044SP00996619003DMI       
CNPJ4551255500015020022/03/2017000000000101361710/03/2017             15300044SP00996619003DMI       
CNPJ4551255500015020022/03/2017000000000086634210/03/2017             15300044SP00996619003DMI       
CNPJ4551255500015020022/03/2017000000000051297810/03/2017             15300044SP00996619003DMI       
CNPJ4551255500015020022/03/2017000000000109881010/03/2017             15300044SP00996619003DMI       
CNPJ4551255500015020022/03/2017000000000063853610/03/2017             15300044SP00996619003DMI       
CNPJ4551255500015020022/03/2017000000000244860009/03/2017             15300044SP00996619003DMI       
CNPJ4551255500015020022/03/2017000000000283272009/03/2017             15300044SP00996619003DMI       
CNPJ4551255500015020022/03/2017000000000854700009/03/2017             15300044SP00996619003DMI       
CNPJ4551255500015020022/03/2017000000000449982007/03/2017             15300044SP00996619003DMI       
CNPJ4551255500015020022/03/2017000000000499980007/03/2017             15300044SP00996619003DMI       
CNPJ4551255500015020023/03/2017000000000144000013/03/2017             15300044SP00996619003DMI       
CNPJ4551255500015020023/03/2017000000000121148413/03/2017             15300044SP00996619003DMI       
CNPJ4551255500015020023/03/2017000000000699379213/03/2017             15300044SP00996619003DMI       
CNPJ4551255500015020024/03/2017000000000537980015/03/2017             15300044SP00996619003DMI       
CNPJ4551255500015020024/03/2017000000000225600010/03/2017             15300044SP00996619003DMI       
CNPJ4551255500015020024/03/2017000000000340800010/03/2017             15300044SP00996619003DMI       
CNPJ4551255500015020024/03/2017000000000426420010/03/2017             15300044SP00996619003DMI       
CNPJ4551255500015020024/03/2017000000000681600010/03/2017             15300044SP00996619003DMI       
CNPJ4551255500015020027/03/2017000000001028235508/03/2017             15300044SP00996619003DMI       
CNPJ4551255500015020027/03/2017000000000577238408/03/2017             15300044SP00996619003DMI       
CNPJ4551255500015020027/03/2017000000000550753016/03/2017             15300044SP00996619003DMI       
CNPJ4551255500015020027/03/2017000000000199680013/03/2017             15300044SP00996619003DMI       
CNPJ4551255500015020028/03/2017000000000152988017/03/2017             15300044SP00996619003DMI       
CNPJ4551255500015020028/03/2017000000000217292017/03/2017             15300044SP00996619003DMI       
CNPJ4551255500015020028/03/2017000000000085470014/03/2017             15300044SP00996619003DMI       
CNPJ4551255500015020028/03/2017000000000471750014/03/2017             15300044SP00996619003DMI       
CNPJ4551255500015020029/03/2017000000000074880015/03/2017             15300044SP00996619003DMI       
CNPJ4551255500015020029/03/2017000000000462736815/03/2017             15300044SP00996619003DMI       
CNPJ4551255500015020029/03/2017000000000236698215/03/2017             15300044SP00996619003DMI       
CNPJ4551255500015020029/03/2017000000000154752015/03/2017             15300044SP00996619003DMI       
CNPJ4551255500015020029/03/2017000000000206928015/03/2017             15300044SP00996619003DMI       
CNPJ4551255500015020030/03/2017000000000486042521/03/2017             15300044SP00996619003DMI       
CNPJ4551255500015020030/03/2017000000000221650018/03/2017             15300044SP00996619003DMI       
CNPJ4551255500015020030/03/2017000000000247700018/03/2017             15300044SP00996619003DMI       
CNPJ4551255500015020030/03/2017000000000447520018/03/2017             15300044SP00996619003DMI       
CNPJ4551255500015020030/03/2017000000000496680018/03/2017             15300044SP00996619003DMI       
CNPJ4551255500015020003/04/2017000000000294840018/03/2017             15300044SP00996619003DMI       
CNPJ4551255500015020003/04/2017000000000104650020/03/2017             15300044SP00996619003DMI       
CNPJ4551255500015020003/04/2017000000000271790020/03/2017             15300044SP00996619003DMI       
CNPJ4551255500015020003/04/2017000000000099840020/03/2017             15300044SP00996619003DMI       
CNPJ4551255500015020003/04/2017000000000087360020/03/2017             15300044SP00996619003DMI       
CNPJ4551255500015020003/04/2017000000000723720020/03/2017             15300044SP00996619003DMI       
CNPJ4551255500015020003/04/2017000000000256880320/03/2017             15300044SP00996619003DMI       
CNPJ4551255500015020003/04/2017000000000089985620/03/2017             15300044SP00996619003DMI       
CNPJ4551255500015020003/04/2017000000000121170020/03/2017             15300044SP00996619003DMI       
CNPJ4551255500015020003/04/2017000000000131436020/03/2017             15300044SP00996619003DMI       
CNPJ4551255500015020003/04/2017000000000139309220/03/2017             15300044SP00996619003DMI       
CNPJ4551255500015020003/04/2017000000000213450020/03/2017             15300044SP00996619003DMI       
CNPJ4551255500015020003/04/2017000000000249382820/03/2017             15300044SP00996619003DMI       
CNPJ4551255500015020003/04/2017000000000312876018/03/2017             15300044SP00996619003DMI       
CNPJ4551255500015020003/04/2017000000000312912019/03/2017             15300044SP00996619003DMI       
CNPJ4551255500015020003/04/2017000000000320208022/03/2017             15300044SP00996619003DMI       
CNPJ4551255500015020003/04/2017000000000521460017/03/2017             15300044SP00996619003DMI       
CNPJ4551255500015020003/04/2017000000000758916020/03/2017             15300044SP00996619003DMI       
CNPJ4551255500015020003/04/2017000000000282244510/03/2017             15300044SP00996619003DMI       
CNPJ4551255500015020003/04/2017000000001415319109/03/2017             15300044SP00996619003DMI       
CNPJ4551255500015020003/04/2017000000000163165510/03/2017             15300044SP00996619003DMI       
CNPJ4551255500015020004/04/2017000000000278963221/03/2017             15300044SP00996619003DMI       
CNPJ4551255500015020004/04/2017000000000187910023/03/2017             15300044SP00996619003DMI       
CNPJ4551255500015020004/04/2017000000000519746425/03/2017             15300044SP00996619003DMI       
CNPJ4551255500015020004/04/2017000000000089877622/03/2017             15300044SP00996619003DMI       
CNPJ4551255500015020004/04/2017000000000600000021/03/2017             15300044SP00996619003DMI       
CNPJ4551255500015020004/04/2017000000002058885624/03/2017             15300044SP00996619003DMI       
CNPJ4551255500015020005/04/2017000000000113011224/03/2017             15300044SP00996619003DMI       
CNPJ4551255500015020005/04/2017000000000192000022/03/2017             15300044SP00996619003DMI       
CNPJ4551255500015020005/04/2017000000000282310027/03/2017             15300044SP00996619003DMI       
CNPJ4551255500015020005/04/2017000000000760032027/03/2017             15300044SP00996619003DMI       
CNPJ4551255500015020005/04/2017000000000278400021/03/2017             15300044SP00996619003DMI       
CNPJ4551255500015020006/04/2017000000000294840023/03/2017             15300044SP00996619003DMI       
CNPJ4551255500015020006/04/2017000000000285105623/03/2017             15300044SP00996619003DMI       
CNPJ4551255500015020006/04/2017000000000264820022/03/2017             15300044SP00996619003DMI       
CNPJ4551255500015020006/04/2017000000000112072827/03/2017             15300044SP00996619003DMI       
CNPJ4551255500015020006/04/2017000000000250272023/03/2017             15300044SP00996619003DMI       
CNPJ4551255500015020006/04/2017000000000260730023/03/2017             15300044SP00996619003DMI       
CNPJ4551255500015020007/04/2017000000000479220026/03/2017             15300044SP00996619003DMI       
CNPJ4551255500015020007/04/2017000000000125640028/02/2017             15300044SP00996619003DMI       
CNPJ4551255500015020007/04/2017000000000125640030/03/2017             15300044SP00996619003DMI       
CNPJ4551255500015020007/04/2017000000000175959016/03/2017             15300044SP00996619003DMI       
CNPJ4551255500015020007/04/2017000000000260730016/03/2017             15300044SP00996619003DMI       
CNPJ4551255500015020007/04/2017000000000297840716/03/2017             15300044SP00996619003DMI       
CNPJ4551255500015020007/04/2017000000000138744029/03/2017             15300044SP00996619003DMI       
CNPJ4551255500015020010/04/2017000000000124840827/03/2017             15300044SP00996619003DMI       
CNPJ4551255500015020010/04/2017000000000402906029/03/2017             15300044SP00996619003DMI       
CNPJ4551255500015020011/04/2017000000000149805028/03/2017             15300044SP00996619003DMI       
CNPJ4551255500015020011/04/2017000000000212160028/03/2017             15300044SP00996619003DMI       
CNPJ4551255500015020011/04/2017000000000059901628/03/2017             15300044SP00996619003DMI       
CNPJ4551255500015020012/04/2017000000000110400031/03/2017             15300044SP00996619003DMI       
CNPJ4551255500015020012/04/2017000000000200130003/04/2017             15300044SP00996619003DMI       
CNPJ4551255500015020012/04/2017000000000311220031/03/2017             15300044SP00996619003DMI       
CNPJ4551255500015020012/04/2017000000000327360031/03/2017             15300044SP00996619003DMI       
CNPJ4551255500015020012/04/2017000000000045000031/03/2017             15300044SP00996619003DMI       
CNPJ4551255500015020012/04/2017000000000045000031/03/2017             15300044SP00996619003DMI       
CNPJ4551255500015020017/04/2017000000000056842530/03/2017             15300044SP00996619003DMI       
CNPJ4551255500015020017/04/2017000000000240487530/03/2017             15300044SP00996619003DMI       
CNPJ4551255500015020017/04/2017000000000800520003/04/2017             15300044SP00996619003DMI       
CNPJ4551255500015020019/04/2017000000000388416004/04/2017             15300044SP00996619003DMI       
CNPJ4551255500015020019/04/2017000000000028840004/04/2017             15300044SP00996619003DMI       
CNPJ4551255500015020019/04/2017000000000036000004/04/2017             15300044SP00996619003DMI       
CNPJ4551255500015020019/04/2017000000000049600004/04/2017             15300044SP00996619003DMI       
CNPJ4551255500015020019/04/2017000000000066560004/04/2017             15300044SP00996619003DMI       
CNPJ4551255500015020019/04/2017000000000227460004/04/2017             15300044SP00996619003DMI       
CNPJ4551255500015020020/04/2017000000000138840006/04/2017             15300044SP00996619003DMI       
CNPJ4551255500015020020/04/2017000000000083160006/04/2017             15300044SP00996619003DMI       
CNPJ4551255500015020020/04/2017000000000084297206/04/2017             15300044SP00996619003DMI       
CNPJ4551255500015020020/04/2017000000000132466806/04/2017             15300044SP00996619003DMI       
CNPJ4551255500015020020/04/2017000000000140506006/04/2017             15300044SP00996619003DMI       
CNPJ4551255500015020024/04/2017000000000084307505/04/2017             15300044SP00996619003DMI       
CNPJ4551255500015020024/04/2017000000000134892005/04/2017             15300044SP00996619003DMI       
CNPJ4551255500015020024/04/2017000000000149940005/04/2017             15300044SP00996619003DMI       
CNPJ4551255500015020024/04/2017000000000075553505/04/2017             15300044SP00996619003DMI       
CNPJ4551255500015020024/04/2017000000000329688005/04/2017             15300044SP00996619003DMI       
CNPJ4551255500015020024/04/2017000000000051836805/04/2017             15300044SP00996619003DMI       
CNPJ4551255500015020024/04/2017000000000118740005/04/2017             15300044SP00996619003DMI       
CNPJ4551255500015020024/04/2017000000000034400005/04/2017             15300044SP00996619003DMI       
CNPJ4551255500015020024/04/2017000000000055970005/04/2017             15300044SP00996619003DMI       
CNPJ4551255500015020024/04/2017000000000114290005/04/2017             15300044SP00996619003DMI       
CNPJ4551255500015020024/04/2017000000000047940005/04/2017             15300044SP00996619003DMI       
CNPJ4551255500015020024/04/2017000000000041720005/04/2017             15300044SP00996619003DMI       
CNPJ4551255500015020025/04/2017000000000023109009/04/2017             15300044SP00996619003DMI       
CNPJ4551255500015020025/04/2017000000000043732509/04/2017             15300044SP00996619003DMI       
CNPJ4551255500015020025/04/2017000000000056227509/04/2017             15300044SP00996619003DMI       
CNPJ4551255500015020025/04/2017000000000099960009/04/2017             15300044SP00996619003DMI       
CNPJ4551255500015020025/04/2017000000000163117412/04/2017             15300044SP00996619003DMI       
CNPJ4551255500015020025/04/2017000000000225652511/04/2017             15300044SP00996619003DMI       
CNPJ4551255500015020025/04/2017000000000266091611/04/2017             15300044SP00996619003DMI       
CNPJ4551255500015020025/04/2017000000000288167411/04/2017             15300044SP00996619003DMI       
CNPJ4551255500015020025/04/2017000000000723856906/04/2017             15300044SP00996619003DMI       
CNPJ4551255500015020028/04/2017000000000237000014/04/2017             15300044SP00996619003DMI       
CNPJ4551255500015020028/04/2017000000000323280015/04/2017             15300044SP00996619003DMI       
CNPJ4551255500015020028/04/2017000000000882360015/04/2017             15300044SP00996619003DMI       
CNPJ4551255500015020002/05/2017000000000327505013/04/2017             15300044SP00996619003DMI       
CNPJ4551255500015020002/05/2017000000000553068016/04/2017             15300044SP00996619003DMI       
CNPJ4551255500015020004/05/2017000000000266011721/04/2017             15300044SP00996619003DMI       
CNPJ4551255500015020005/05/2017000000000163068422/04/2017             15300044SP00996619003DMI       
CNPJ4551255500015020009/05/2017000000000076008627/04/2017             15300044SP00996619003DMI       
CNPJ4551255500015020009/05/2017000000000274087026/04/2017             15300044SP00996619003DMI       
CNPJ4551255500015020009/05/2017000000000287825325/04/2017             15300044SP00996619003DMI       
CNPJ4551255500015020012/05/2017000000000447520017/04/2017             15300044SP00996619003DMI       
CNPJ4551255500015020012/05/2017000000000247700017/04/2017             15300044SP00996619003DMI       
CNPJ4551255500015020012/05/2017000000000221650017/04/2017             15300044SP00996619003DMI       
CNPJ4551255500015020012/05/2017000000000496680017/04/2017             15300044SP00996619003DMI       
CNPJ4551255500015020015/05/2017000000000127041003/05/2017             15300044SP00996619003DMI       
CNPJ4551255500015020015/05/2017000000000163068602/05/2017             15300044SP00996619003DMI       
CNPJ4551255500015020015/05/2017000000000266011901/05/2017             15300044SP00996619003DMI       
CNPJ4551255500015020016/05/2017000000000173630027/04/2017             15300044SP00996619003DMI       
CNPJ4551255500015020016/05/2017000000001678560007/05/2017             15300044SP00996619003DMI       
CNPJ4551255500015020017/05/2017000000000287738905/05/2017             15300044SP00996619003DMI       
CNPJ4551255500015020017/05/2017000000000117000022/04/2017             15300044SP00996619003DMI       
CNPJ4551255500015020017/05/2017000000000282555022/04/2017             15300044SP00996619003DMI       
CNPJ4551255500015020017/05/2017000000000337830422/04/2017             15300044SP00996619003DMI       
CNPJ4551255500015020017/05/2017000000000379679822/04/2017             15300044SP00996619003DMI       
CNPJ4551255500015020017/05/2017000000000478800322/04/2017             15300044SP00996619003DMI       
CNPJ4551255500015020018/05/2017000000000005830006/05/2017             15300044SP00996619003DMI       
CNPJ4551255500015020018/05/2017000000000274004806/05/2017             15300044SP00996619003DMI       
CNPJ4551255500015020019/05/2017000000000118371402/05/2017             15300044SP00996619003DMI       
CNPJ4551255500015020019/05/2017000000000270410008/05/2017             15300044SP00996619003DMI       
CNPJ4551255500015020019/05/2017000000000304783602/05/2017             15300044SP00996619003DMI       
CNPJ4551255500015020019/05/2017000000001285560010/05/2017             15300044SP00996619003DMI       
CNPJ4551255500015020022/05/2017000000000152880008/05/2017             15300044SP00996619003DMI       
CNPJ4551255500015020022/05/2017000000000097169208/05/2017             15300044SP00996619003DMI       
CNPJ4551255500015020022/05/2017000000000157458002/05/2017             15300044SP00996619003DMI       
CNPJ4551255500015020022/05/2017000000000224940002/05/2017             15300044SP00996619003DMI       
CNPJ4551255500015020022/05/2017000000000287971202/05/2017             15300044SP00996619003DMI       
CNPJ4551255500015020022/05/2017000000000767923202/05/2017             15300044SP00996619003DMI       
CNPJ4551255500015020022/05/2017000000000248120010/05/2017             15300044SP00996619003DMI       
CNPJ4551255500015020023/05/2017000000000788797111/05/2017             15300044SP00996619003DMI       
CNPJ4551255500015020023/05/2017000000000175050014/05/2017             15300044SP00996619003DMI       
CNPJ4551255500015020023/05/2017000000000206400010/05/2017             15300044SP00996619003DMI       
CNPJ4551255500015020023/05/2017000000000297600010/05/2017             15300044SP00996619003DMI       
CNPJ4551255500015020025/05/2017000000000270990012/05/2017             15300044SP00996619003DMI       
CNPJ4551255500015020025/05/2017000000000432000312/05/2017             15300044SP00996619003DMI       
CNPJ4551255500015020025/05/2017000000000821688013/05/2017             15300044SP00996619003DMI       
CNPJ4551255500015020025/05/2017000000001238593213/05/2017             15300044SP00996619003DMI       
CNPJ4551255500015020029/05/2017000000000274004916/05/2017             15300044SP00996619003DMI       
CNPJ4551255500015020029/05/2017000000000287739115/05/2017             15300044SP00996619003DMI       
CNPJ4551255500015020029/05/2017000000000553068016/05/2017             15300044SP00996619003DMI       
CNPJ4551255500015020031/05/2017000000000191258710/05/2017             15300044SP00996619003DMI       
CNPJ4551255500015020031/05/2017000000000248553719/05/2017             15300044SP00996619003DMI       
CNPJ4551255500015020031/05/2017000000000282108219/05/2017             15300044SP00996619003DMI       
CNPJ4551255500015020031/05/2017000000000447520017/05/2017             15300044SP00996619003DMI       
CNPJ4551255500015020031/05/2017000000000247700017/05/2017             15300044SP00996619003DMI       
CNPJ4551255500015020031/05/2017000000000221650017/05/2017             15300044SP00996619003DMI       
CNPJ4551255500015020031/05/2017000000000496680017/05/2017             15300044SP00996619003DMI       
CNPJ4551255500015020001/06/2017000000000169044520/05/2017             15300044SP00996619003DMI       
CNPJ4551255500015020005/06/2017000000000190344022/05/2017             15300044SP00996619003DMI       
CNPJ4551255500015020005/06/2017000000000127079024/05/2017             15300044SP00996619003DMI       
CNPJ4551255500015020006/06/2017000000000261939525/05/2017             15300044SP00996619003DMI       
CNPJ4551255500015020006/06/2017000000000473760023/05/2017             15300044SP00996619003DMI       
CNPJ4551255500015020006/06/2017000000000052200023/05/2017             15300044SP00996619003DMI       
CNPJ4551255500015020006/06/2017000000000613440023/05/2017             15300044SP00996619003DMI       
CNPJ4551255500015020006/06/2017000000000126720023/05/2017             15300044SP00996619003DMI       
CNPJ4551255500015020007/06/2017000000000068376025/05/2017             15300044SP00996619003DMI       
CNPJ4551255500015020007/06/2017000000000195360025/05/2017             15300044SP00996619003DMI       
CNPJ4551255500015020007/06/2017000000000331484426/05/2017             15300044SP00996619003DMI       
CNPJ4551255500015020007/06/2017000000000360000026/05/2017             15300044SP00996619003DMI       
CNPJ4551255500015020007/06/2017000000000450000026/05/2017             15300044SP00996619003DMI       
CNPJ4551255500015020008/06/2017000000000788797227/05/2017             15300044SP00996619003DMI       
CNPJ4551255500015020012/06/2017000000000264150001/06/2017             15300044SP00996619003DMI       
CNPJ4551255500015020013/06/2017000000000176080001/06/2017             15300044SP00996619003DMI       
CNPJ4551255500015020013/06/2017000000000262080030/05/2017             15300044SP00996619003DMI       
CNPJ4551255500015020013/06/2017000000000729600030/05/2017             15300044SP00996619003DMI       
CNPJ4551255500015020019/06/2017000000000135574703/06/2017             15300044SP00996619003DMI       
CNPJ4551255500015020019/06/2017000000000185980703/06/2017             15300044SP00996619003DMI       
CNPJ4551255500015020019/06/2017000000000208746103/06/2017             15300044SP00996619003DMI       
CNPJ4551255500015020019/06/2017000000000219736603/06/2017             15300044SP00996619003DMI       
CNPJ4551255500015020020/06/2017000000000490560002/06/2017             15300044SP00996619003DMI       
CNPJ4551255500015020022/06/2017000000000169438708/06/2017             15300044SP00996619003DMI       
CNPJ4551255500015020022/06/2017000000000305019308/06/2017             15300044SP00996619003DMI       
CNPJ4551255500015020023/06/2017000000000242400007/06/2017             15300044SP00996619003DMI       
CNPJ4551255500015020023/06/2017000000000629760007/06/2017             15300044SP00996619003DMI       
CNPJ4551255500015020023/06/2017000000000086184001/06/2017             15300044SP00996619003DMI       
CNPJ4551255500015020023/06/2017000000000167109808/06/2017             15300044SP00996619003DMI       
CNPJ4551255500015020023/06/2017000000000121101808/06/2017             15300044SP00996619003DMI       
CNPJ4551255500015020023/06/2017000000000096660008/06/2017             15300044SP00996619003DMI       
CNPJ4551255500015020023/06/2017000000000077775511/06/2017             15300044SP00996619003DMI       
CNPJ4551255500015020023/06/2017000000000084413811/06/2017             15300044SP00996619003DMI       
CNPJ4551255500015020023/06/2017000000000166848010/06/2017             15300044SP00996619003DMI       
CNPJ4551255500015020023/06/2017000000000234612010/06/2017             15300044SP00996619003DMI       
CNPJ4551255500015020023/06/2017000000000379290009/06/2017             15300044SP00996619003DMI       
CNPJ4551255500015020023/06/2017000000000391020011/06/2017             15300044SP00996619003DMI       
CNPJ4551255500015020023/06/2017000000000394178411/06/2017             15300044SP00996619003DMI       
CNPJ4551255500015020023/06/2017000000000412123109/06/2017             15300044SP00996619003DMI       
CNPJ4551255500015020023/06/2017000000000643800009/06/2017             15300044SP00996619003DMI       
CNPJ4551255500015020023/06/2017000000000088632006/06/2017             15300044SP00996619003DMI       
CNPJ4551255500015020023/06/2017000000000354528006/06/2017             15300044SP00996619003DMI       
CNPJ4551255500015020023/06/2017000000000250272004/06/2017             15300044SP00996619003DMI       
CNPJ4551255500015020023/06/2017000000000265896004/06/2017             15300044SP00996619003DMI       
CNPJ4551255500015020023/06/2017000000000119940001/06/2017             15300044SP00996619003DMI       
CNPJ4551255500015020023/06/2017000000000177264001/06/2017             15300044SP00996619003DMI       
CNPJ4551255500015020023/06/2017000000000186127201/06/2017             15300044SP00996619003DMI       
CNPJ4551255500015020023/06/2017000000000212716801/06/2017             15300044SP00996619003DMI       
CNPJ4551255500015020023/06/2017000000000250272001/06/2017             15300044SP00996619003DMI       
CNPJ4551255500015020023/06/2017000000000750816001/06/2017             15300044SP00996619003DMI       
CNPJ4551255500015020023/06/2017000000000974952001/06/2017             15300044SP00996619003DMI       
CNPJ4551255500015020023/06/2017000000001329480001/06/2017             15300044SP00996619003DMI       
CNPJ4551255500015020023/06/2017000000000310212001/06/2017             15300044SP00996619003DMI       
CNPJ4551255500015020023/06/2017000000000310212001/06/2017             15300044SP00996619003DMI       
CNPJ4551255500015020026/06/2017000000000234612009/06/2017             15300044SP00996619003DMI       
CNPJ4551255500015020026/06/2017000000000291984009/06/2017             15300044SP00996619003DMI       
CNPJ4551255500015020026/06/2017000000000291984009/06/2017             15300044SP00996619003DMI       
CNPJ4551255500015020027/06/2017000000000553068015/06/2017             15300044SP00996619003DMI       
CNPJ4551255500015020028/06/2017000000000310212012/06/2017             15300044SP00996619003DMI       
CNPJ4551255500015020028/06/2017000000000312876012/06/2017             15300044SP00996619003DMI       
CNPJ4551255500015020028/06/2017000000000208560011/06/2017             15300044SP00996619003DMI       
CNPJ4551255500015020028/06/2017000000000265896010/06/2017             15300044SP00996619003DMI       
CNPJ4551255500015020028/06/2017000000000281556011/06/2017             15300044SP00996619003DMI       
CNPJ4551255500015020028/06/2017000000000328482010/06/2017             15300044SP00996619003DMI       
CNPJ4551255500015020028/06/2017000000000338820008/06/2017             15300044SP00996619003DMI       
CNPJ4551255500015020028/06/2017000000000281556008/06/2017             15300044SP00996619003DMI       
CNPJ4551255500015020029/06/2017000000000215071217/06/2017             15300044SP00996619003DMI       
CNPJ4551255500015020029/06/2017000000000291984015/06/2017             15300044SP00996619003DMI       
CNPJ4551255500015020030/06/2017000000000098374218/06/2017             15300044SP00996619003DMI       
CNPJ4551255500015020030/06/2017000000000218988016/06/2017             15300044SP00996619003DMI       
CNPJ4551255500015020030/06/2017000000000437976016/06/2017             15300044SP00996619003DMI       
CNPJ4551255500015020003/07/2017000000000156408018/06/2017             15300044SP00996619003DMI       
CNPJ4551255500015020003/07/2017000000000308601416/06/2017             15300044SP00996619003DMI       
CNPJ4551255500015020003/07/2017000000000195510015/06/2017             15300044SP00996619003DMI       
CNPJ4551255500015020003/07/2017000000000430122015/06/2017             15300044SP00996619003DMI       
CNPJ4551255500015020003/07/2017000000000108451214/06/2017             15300044SP00996619003DMI       
CNPJ4551255500015020003/07/2017000000000250272014/06/2017             15300044SP00996619003DMI       
CNPJ4551255500015020003/07/2017000000000291984014/06/2017             15300044SP00996619003DMI       
CNPJ4551255500015020003/07/2017000000000417120014/06/2017             15300044SP00996619003DMI       
CNPJ4551255500015020003/07/2017000000000291984014/06/2017             15300044SP00996619003DMI       
CNPJ4551255500015020003/07/2017000000000312876014/06/2017             15300044SP00996619003DMI       
CNPJ4551255500015020003/07/2017000000000312876014/06/2017             15300044SP00996619003DMI       
CNPJ4551255500015020003/07/2017000000000088300813/06/2017             15300044SP00996619003DMI       
CNPJ4551255500015020003/07/2017000000000093852013/06/2017             15300044SP00996619003DMI       
CNPJ4551255500015020003/07/2017000000000124474713/06/2017             15300044SP00996619003DMI       
CNPJ4551255500015020003/07/2017000000000176806813/06/2017             15300044SP00996619003DMI       
CNPJ4551255500015020003/07/2017000000000583968013/06/2017             15300044SP00996619003DMI       
CNPJ4551255500015020004/07/2017000000000291984020/06/2017             15300044SP00996619003DMI       
CNPJ4551255500015020006/07/2017000000000135000024/06/2017             15300044SP00996619003DMI       
CNPJ4551255500015020006/07/2017000000000132300019/06/2017             15300044SP00996619003DMI       
CNPJ4551255500015020006/07/2017000000000042930019/06/2017             15300044SP00996619003DMI       
CNPJ4551255500015020006/07/2017000000000164560027/06/2017             15300044SP00996619003DMI       
CNPJ4551255500015020006/07/2017000000000174240027/06/2017             15300044SP00996619003DMI       
CNPJ4551255500015020006/07/2017000000000277176023/06/2017             15300044SP00996619003DMI       
CNPJ4551255500015020006/07/2017000000000310128023/06/2017             15300044SP00996619003DMI       
CNPJ4551255500015020006/07/2017000000000025027217/06/2017             15300044SP00996619003DMI       
CNPJ4551255500015020006/07/2017000000000025027218/06/2017             15300044SP00996619003DMI       
CNPJ4551255500015020006/07/2017000000000070905616/06/2017             15300044SP00996619003DMI       
CNPJ4551255500015020006/07/2017000000000166848018/06/2017             15300044SP00996619003DMI       
CNPJ4551255500015020006/07/2017000000000166848016/06/2017             15300044SP00996619003DMI       
CNPJ4551255500015020006/07/2017000000000203292017/06/2017             15300044SP00996619003DMI       
CNPJ4551255500015020006/07/2017000000000354528017/06/2017             15300044SP00996619003DMI       
CNPJ4551255500015020006/07/2017000000000620424016/06/2017             15300044SP00996619003DMI       
CNPJ4551255500015020006/07/2017000000000019800018/06/2017             15300044SP00996619003DMI       
CNPJ4551255500015020006/07/2017000000000026589617/06/2017             15300044SP00996619003DMI       
CNPJ4551255500015020006/07/2017000000000027105617/06/2017             15300044SP00996619003DMI       
CNPJ4551255500015020006/07/2017000000000070905618/06/2017             15300044SP00996619003DMI       
CNPJ4551255500015020006/07/2017000000000088632017/06/2017             15300044SP00996619003DMI       
CNPJ4551255500015020006/07/2017000000000141811216/06/2017             15300044SP00996619003DMI       
CNPJ4551255500015020006/07/2017000000000221580016/06/2017             15300044SP00996619003DMI       
CNPJ4551255500015020006/07/2017000000000265896018/06/2017             15300044SP00996619003DMI       
CNPJ4551255500015020006/07/2017000000000354528016/06/2017             15300044SP00996619003DMI       
CNPJ4551255500015020007/07/2017000000000083052023/06/2017             15300044SP00996619003DMI       
CNPJ4551255500015020007/07/2017000000000160477223/06/2017             15300044SP00996619003DMI       
CNPJ4551255500015020007/07/2017000000000182833223/06/2017             15300044SP00996619003DMI       
CNPJ4551255500015020010/07/2017000000000312816024/06/2017             15300044SP00996619003DMI       
CNPJ4551255500015020010/07/2017000000001818763827/06/2017             15300044SP00996619003CDA       
CNPJ4551255500015020010/07/2017000000000538611727/06/2017             15300044SP00996619003CDA       
CNPJ4551255500015020010/07/2017000000003824878427/06/2017             15300044SP00996619003CDA       
CNPJ4551255500015020010/07/2017000000002574859327/06/2017             15300044SP00996619003CDA       
CNPJ4551255500015020010/07/2017000000002902413827/06/2017             15300044SP00996619003CDA       
CNPJ4551255500015020010/07/2017000000000691981227/06/2017             15300044SP00996619003CDA       
CNPJ4551255500015020010/07/2017000000000747019727/06/2017             15300044SP00996619003CDA       
CNPJ4551255500015020010/07/2017000000001701766127/06/2017             15300044SP00996619003CDA       
CNPJ4551255500015020010/07/2017000000002140076927/06/2017             15300044SP00996619003CDA       
CNPJ4551255500015020010/07/2017000000014358049927/06/2017             15300044SP00996619003CDA       
CNPJ4551255500015020010/07/2017000000017008388827/06/2017             15300044SP00996619003CDA       
CNPJ4551255500015020010/07/2017000000000677669127/06/2017             15300044SP00996619003CDA       
CNPJ4551255500015020010/07/2017000000000173519027/06/2017             15300044SP00996619003CDA       
CNPJ4551255500015020010/07/2017000000001189591927/06/2017             15300044SP00996619003CDA       
CNPJ4551255500015020010/07/2017000000000741326827/06/2017             15300044SP00996619003CDA       
CNPJ4551255500015020010/07/2017000000001361556327/06/2017             15300044SP00996619003CDA       
CNPJ4551255500015020010/07/2017000000000543724327/06/2017             15300044SP00996619003CDA       
CNPJ4551255500015020010/07/2017000000000253496227/06/2017             15300044SP00996619003CDA       
CNPJ4551255500015020010/07/2017000000000780704327/06/2017             15300044SP00996619003CDA       
CNPJ4551255500015020010/07/2017000000000652164027/06/2017             15300044SP00996619003CDA       
CNPJ4551255500015020010/07/2017000000000425135827/06/2017             15300044SP00996619003CDA       
CNPJ4551255500015020010/07/2017000000001070011727/06/2017             15300044SP00996619003CDA       
CNPJ4551255500015020010/07/2017000000000551828927/06/2017             15300044SP00996619003CDA       
CNPJ4551255500015020010/07/2017000000001240438927/06/2017             15300044SP00996619003CDA       
CNPJ4551255500015020010/07/2017000000000384074427/06/2017             15300044SP00996619003CDA       
CNPJ4551255500015020010/07/2017000000000235823027/06/2017             15300044SP00996619003CDA       
CNPJ4551255500015020010/07/2017000000000441817927/06/2017             15300044SP00996619003CDA       
CNPJ4551255500015020010/07/2017000000000440467927/06/2017             15300044SP00996619003CDA       
CNPJ4551255500015020010/07/2017000000000070356127/06/2017             15300044SP00996619003CDA       
CNPJ4551255500015020010/07/2017000000006814780227/06/2017             15300044SP00996619003CDA       
CNPJ4551255500015020010/07/2017000000002549245627/06/2017             15300044SP00996619003CDA       
CNPJ4551255500015020010/07/2017000000013368764327/06/2017             15300044SP00996619003CDA       
CNPJ4551255500015020011/07/2017000000000106207227/06/2017             15300044SP00996619003DMI       
CNPJ4551255500015020011/07/2017000000000388119627/06/2017             15300044SP00996619003DMI       
CNPJ4551255500015020013/07/2017000000000166848028/06/2017             15300044SP00996619003DMI       
CNPJ4551255500015020014/07/2017000000000086578429/06/2017             15300044SP00996619003DMI       
CNPJ4551255500015020014/07/2017000000000310212029/06/2017             15300044SP00996619003DMI       
CNPJ4551255500015020014/07/2017000000000114196529/06/2017             15300044SP00996619003DMI       
CNPJ4551255500015020014/07/2017000000000430542029/06/2017             15300044SP00996619003DMI       
CNPJ4551255500015020014/07/2017000000000061527602/07/2017             15300044SP00996619003DMI       
CNPJ4551255500015020018/07/2017000000000181758204/07/2017             15300044SP00996619003DMI       
CNPJ4551255500015020019/07/2017000000001243236005/07/2017             15300044SP00996619003DMI       
CNPJ4551255500015020020/07/2017000000000169387808/07/2017             15300044SP00996619003DMI       
CNPJ4551255500015020020/07/2017000000000304927808/07/2017             15300044SP00996619003DMI       
CNPJ4551255500015020020/07/2017000000000061506006/07/2017             15300044SP00996619003DMI       
CNPJ4551255500015020020/07/2017000000000144612006/07/2017             15300044SP00996619003DMI       
CNPJ4551255500015020020/07/2017000000001524001606/07/2017             15300044SP00996619003DMI       
CNPJ4551255500015020021/07/2017000000000167109708/07/2017             15300044SP00996619003DMI       
CNPJ4551255500015020021/07/2017000000000121101708/07/2017             15300044SP00996619003DMI       
CNPJ4551255500015020021/07/2017000000000040864508/07/2017             15300044SP00996619003DMI       
CNPJ4551255500015020021/07/2017000000000096660008/07/2017             15300044SP00996619003DMI       
CNPJ4551255500015020021/07/2017000000000115971707/07/2017             15300044SP00996619003DMI       
CNPJ4551255500015020021/07/2017000000000045832507/07/2017             15300044SP00996619003DMI       
CNPJ4551255500015020021/07/2017000000000089910012/07/2017             15300044SP00996619003DMI       
CNPJ4551255500015020021/07/2017000000000164560012/07/2017             15300044SP00996619003DMI       
CNPJ4551255500015020021/07/2017000000000174240012/07/2017             15300044SP00996619003DMI       
CNPJ4551255500015020021/07/2017000000000178191407/07/2017             15300044SP00996619003DMI       
CNPJ4551255500015020021/07/2017000000000411642007/07/2017             15300044SP00996619003DMI       
CNPJ4551255500015020021/07/2017000000000203292021/06/2017             15300044SP00996619003DMI       
CNPJ4551255500015020024/07/2017000000000553942812/07/2017             15300044SP00996619003DMI       
CNPJ4551255500015020024/07/2017000000000195510029/06/2017             15300044SP00996619003DMI       
CNPJ4551255500015020024/07/2017000000000169410028/06/2017             15300044SP00996619003DMI       
CNPJ4551255500015020024/07/2017000000000250272028/06/2017             15300044SP00996619003DMI       
CNPJ4551255500015020024/07/2017000000000182490027/06/2017             15300044SP00996619003DMI       
CNPJ4551255500015020024/07/2017000000000203292027/06/2017             15300044SP00996619003DMI       
CNPJ4551255500015020025/07/2017000000000114796613/07/2017             15300044SP00996619003DMI       
CNPJ4551255500015020025/07/2017000000000088354811/07/2017             15300044SP00996619003DMI       
CNPJ4551255500015020025/07/2017000000000095936411/07/2017             15300044SP00996619003DMI       
CNPJ4551255500015020025/07/2017000000001493148005/07/2017             15300044SP00996619003DMI       
CNPJ4551255500015020025/07/2017000000000310212006/07/2017             15300044SP00996619003DMI       
CNPJ4551255500015020026/07/2017000000000180660314/07/2017             15300044SP00996619003DMI       
CNPJ4551255500015020026/07/2017000000000286347614/07/2017             15300044SP00996619003DMI       
CNPJ4551255500015020031/07/2017000000000152744119/07/2017             15300044SP00996619003DMI       
CNPJ4551255500015020031/07/2017000000000215071217/07/2017             15300044SP00996619003DMI       
CNPJ4551255500015020031/07/2017000000000224794519/07/2017             15300044SP00996619003DMI       
CNPJ4551255500015020031/07/2017000000000312876013/07/2017             15300044SP00996619003DMI       
CNPJ4551255500015020031/07/2017000000000086032812/07/2017             15300044SP00996619003DMI       
CNPJ4551255500015020031/07/2017000000000265896012/07/2017             15300044SP00996619003DMI       
CNPJ4551255500015020031/07/2017000000000365022012/07/2017             15300044SP00996619003DMI       
CNPJ4551255500015020001/08/2017000000000262800020/07/2017             15300044SP00996619003DMI       
CNPJ4551255500015020001/08/2017000000000462161718/07/2017             15300044SP00996619003DMI       
CNPJ4551255500015020001/08/2017000000000909726005/07/2017             15300044SP00996619003DMI       
CNPJ4551255500015020001/08/2017000000000532170018/07/2017             15300044SP00996619003DMI       
CNPJ4551255500015020001/08/2017000000001052160018/07/2017             15300044SP00996619003DMI       
CNPJ4551255500015020004/08/2017000000000143633323/07/2017             15300044SP00996619003DMI       
CNPJ4551255500015020007/08/2017000000000084511625/07/2017             15300044SP00996619003DMI       
CNPJ4551255500015020007/08/2017000000000411302726/07/2017             15300044SP00996619003DMI       
CNPJ4551255500015020007/08/2017000000000110575626/07/2017             15300044SP00996619003DMI       
CNPJ4551255500015020007/08/2017000000000117608426/07/2017             15300044SP00996619003DMI       
CNPJ4551255500015020007/08/2017000000000140723826/07/2017             15300044SP00996619003DMI       
CNPJ4551255500015020007/08/2017000000000144751526/07/2017             15300044SP00996619003DMI       
CNPJ4551255500015020008/08/2017000000000146872627/07/2017             15300044SP00996619003DMI       
CNPJ4551255500015020008/08/2017000000000283454227/07/2017             15300044SP00996619003DMI       
CNPJ4551255500015020008/08/2017000000001738812005/07/2017             15300044SP00996619003DMI       
CNPJ4551255500015020008/08/2017000000000093852025/07/2017             15300044SP00996619003DMI       
CNPJ4551255500015020008/08/2017000000000198387025/07/2017             15300044SP00996619003DMI       
CNPJ4551255500015020008/08/2017000000000124416025/07/2017             15300044SP00996619003DMI       
CNPJ4551255500015020008/08/2017000000000015640820/07/2017             15300044SP00996619003DMI       
CNPJ4551255500015020008/08/2017000000000052146020/07/2017             15300044SP00996619003DMI       
CNPJ4551255500015020008/08/2017000000000198144020/07/2017             15300044SP00996619003DMI       
CNPJ4551255500015020008/08/2017000000000365022020/07/2017             15300044SP00996619003DMI       
CNPJ4551255500015020008/08/2017000000000177264018/07/2017             15300044SP00996619003DMI       
CNPJ4551255500015020008/08/2017000000000198144018/07/2017             15300044SP00996619003DMI       
CNPJ4551255500015020008/08/2017000000000035452818/07/2017             15300044SP00996619003DMI       
CNPJ4551255500015020008/08/2017000000000198144018/07/2017             15300044SP00996619003DMI       
CNPJ4551255500015020010/08/2017000000000320827527/07/2017             15300044SP00996619003DMI       
CNPJ4551255500015020010/08/2017000000000137781027/07/2017             15300044SP00996619003DMI       
CNPJ4551255500015020010/08/2017000000000198504027/07/2017             15300044SP00996619003DMI       
CNPJ4551255500015020010/08/2017000000000103572027/07/2017             15300044SP00996619003DMI       
CNPJ4551255500015020010/08/2017000000000193104027/07/2017             15300044SP00996619003DMI       
CNPJ4551255500015020010/08/2017000000000128331027/07/2017             15300044SP00996619003DMI       
CNPJ4551255500015020010/08/2017000000000109998027/07/2017             15300044SP00996619003DMI       
CNPJ4551255500015020010/08/2017000000000106839027/07/2017             15300044SP00996619003DMI       
CNPJ4551255500015020010/08/2017000000000142452027/07/2017             15300044SP00996619003DMI       
CNPJ4551255500015020010/08/2017000000000294462027/07/2017             15300044SP00996619003DMI       
CNPJ4551255500015020010/08/2017000000000155722527/07/2017             15300044SP00996619003DMI       
CNPJ4551255500015020010/08/2017000000000093433527/07/2017             15300044SP00996619003DMI       
CNPJ4551255500015020010/08/2017000000000163720010/07/2017             15300044SP00996619003DMI       
CNPJ4551255500015020010/08/2017000000000508198817/07/2017             15300044SP00996619003DMI       
CNPJ4551255500015020010/08/2017000000000163720024/07/2017             15300044SP00996619003DMI       
CNPJ4551255500015020011/08/2017000000000667392027/07/2017             15300044SP00996619003DMI       
CNPJ4551255500015020011/08/2017000000000250272027/07/2017             15300044SP00996619003DMI       
CNPJ4551255500015020011/08/2017000000000009916827/07/2017             15300044SP00996619003DMI       
CNPJ4551255500015020011/08/2017000000001813332731/07/2017             15300044SP00996619003DMI       
CNPJ4551255500015020014/08/2017000000000469224028/07/2017             15300044SP00996619003DMI       
CNPJ4551255500015020014/08/2017000000000039628828/07/2017             15300044SP00996619003DMI       
CNPJ4551255500015020014/08/2017000000000083424028/07/2017             15300044SP00996619003DMI       
CNPJ4551255500015020014/08/2017000000000500544028/07/2017             15300044SP00996619003DMI       
CNPJ4551255500015020014/08/2017000000000078204028/07/2017             15300044SP00996619003DMI       
CNPJ4551255500015020014/08/2017000000000080295628/07/2017             15300044SP00996619003DMI       
CNPJ4551255500015020016/08/2017000000000329760001/08/2017             15300044SP00996619003DMI       
CNPJ4551255500015020016/08/2017000000000249600001/08/2017             15300044SP00996619003DMI       
CNPJ4551255500015020016/08/2017000000000083424027/07/2017             15300044SP00996619003DMI       
CNPJ4551255500015020016/08/2017000000000159537627/07/2017             15300044SP00996619003DMI       
CNPJ4551255500015020016/08/2017000000000312840027/07/2017             15300044SP00996619003DMI       
CNPJ4551255500015020016/08/2017000000000062575227/07/2017             15300044SP00996619003DMI       
CNPJ4551255500015020016/08/2017000000000312876027/07/2017             15300044SP00996619003DMI       
CNPJ4551255500015020016/08/2017000000000974952027/07/2017             15300044SP00996619003DMI       
CNPJ4551255500015020016/08/2017000000001240848027/07/2017             15300044SP00996619003DMI       
CNPJ4551255500015020016/08/2017000000000023461226/07/2017             15300044SP00996619003DMI       
CNPJ4551255500015020016/08/2017000000000023461226/07/2017             15300044SP00996619003DMI       
CNPJ4551255500015020016/08/2017000000000195510026/07/2017             15300044SP00996619003DMI       
CNPJ4551255500015020016/08/2017000000000234612026/07/2017             15300044SP00996619003DMI       
CNPJ4551255500015020016/08/2017000000000417168026/07/2017             15300044SP00996619003DMI       
CNPJ4551255500015020016/08/2017000000000417168026/07/2017             15300044SP00996619003DMI       
CNPJ4551255500015020016/08/2017000000000195510025/07/2017             15300044SP00996619003DMI       
CNPJ4551255500015020016/08/2017000000000417168025/07/2017             15300044SP00996619003DMI       
CNPJ4551255500015020018/08/2017000000000326208003/08/2017             15300044SP00996619003DMI       
